:0400000080314B28D8
:100008007E14803120007F08F900911D37282400D4
:100018001108F4007408FA007A08031930287D03DF
:10002800FF3A7A07F400F030F5002430F60020009B
:100038005C087507F7005D08763DF80077088600CC
:1000480078088700740881008D31D6258031013009
:100058002000DC070030DD3D20005D035C04031D4B
:100068003728DC01DD01921D3B28F0119211270091
:10007800931D40288D3147252000911127009311A9
:100088002000101210107908FF007E10090080313E
:100098004D28F0308400243085000030FE00033005
:1000A800FF008D3114258031F001F101FC015C3035
:1000B8008400003085001130FE000030FF008D31D3
:1000C80014258031A0308400003085004330FE00C4
:1000D8000030FF008D31142580312030840001303C
:1000E80085004A30FE000030FF008D311425803134
:1000F800A0308400013085001230FE000030FF007F
:100108008D31142580318731FF278031FD008731FB
:10011800FD278031ED008731FE278031EE00210078
:100128008C31D2248031E3008C31D3248031E40037
:100138008C31D4248031E5008C31D524E6007E1042
:1001480020008731C92F2000D7005708CB00CC01E9
:100158004B08D5004C08D6005708CB00CC01CD0180
:10016800CE014E08D4004D08D3004C08D2004B08ED
:10017800D1008D3156258031200020308600003096
:100188008700B2308400003085001030CB001600A4
:100198001A00CB0BCB287019B429C3295508CC00F9
:1001A800CB01FF304B042100B200003020004C048A
:1001B800ED28003020005504CB00FF305604CC0059
:1001C8002100320820004B052100B200330820002E
:1001D8004C052100B300C32920005708CB004B0869
:1001E8002100B400C32920005708CB004B08210088
:1001F800B500200057088F31C0278031C32920005F
:100208005708CB004B082100B60036084B060319E7
:10021800C3298C31D62480317011C32921003808B4
:10022800232921003708232921003A0823292100FE
:100238003908232921003C08232921003B082000F4
:10024800B0295708CB004B082100BD003D088D316F
:1002580009258031C32901302100BE070030BF3D88
:100268000030C03D0030C13D0C30B23E86008701F1
:10027800403F2000AF00413FB000423FB100433F44
:10028800B2008231FA22803120002F08CB003008DA
:10029800CC003108CD003208CE001830CF00CE3760
:1002A800CD0CCC0CCB0CCF0B53299B290C30B23E78
:1002B80086008701403FAF00413FB000423FB10098
:1002C800433FB2008231FA22803120002F08CB0050
:1002D8003008CC003108CD003208CE001030CF00F5
:1002E800CE37CD0CCC0CCB0CCF0B74299B290C3002
:1002F800B23E86008701403FAF00413FB000423F19
:10030800B100433FB2008231FA22803120002F0829
:10031800CB003008CC003108CD003208CE000830C0
:10032800CF00CE37CD0CCC0CCB0CCF0B95294B087E
:10033800D0005008B2290C30B23E86008701403FF9
:10034800AF00413FB000423FB100433FB2008231AD
:10035800FA22803120002F08CB004B08EB00C3297C
:100368006108003A0319B929C329600884001030CC
:1003780004020318C32988310435003E8200013085
:100388002000E0070030E13D210033082000610231
:10039800031DD2292100320820006002031C080036
:1003A800FF302100B200FF30B3002000E001E1017E
:1003B800701508002000D7005708CB00CC014B0867
:1003C800D5004C08D6005708CB00CC01CD01CE0192
:1003D8004E08D4004D08D3004C08D2004B08D10079
:1003E8008F3112278131CB2A8E31B72681312000F7
:1003F8005508CC00CB01FF304B042100C20000306F
:1004080020004C04162A00305504CB00FF30560457
:10041800CC002100420820004B052100C2004308FF
:1004280020004C052100C300242A5708CB004B08A4
:100438002100C400242A5708CB004B082100C5001E
:1004480020005708B12A5708013ECB004B0821006D
:10045800CB004B082000B12A01302100C60700302C
:10046800C73D0030C83D0030C93D0430C23E86005B
:100478008701403F2000AF00413FB000423FB1003C
:10048800433FB2008231FA22813120002F08CB008D
:100498003008CC003108CD003208CE001830CF002B
:1004A800CE37CD0CCC0CCB0CCF0B542A9C2A043065
:1004B800C23E86008701403FAF00413FB000423F47
:1004C800B100433FB2008231FA22813120002F0867
:1004D800CB003008CC003108CD003208CE001030F7
:1004E800CF00CE37CD0CCC0CCB0CCF0B752A9C2A69
:1004F8000430C23E86008701403FAF00413FB00054
:10050800423FB100433FB2008231FA2281312000DC
:100518002F08CB003008CC003108CD003208CE00BF
:100528000830CF00CE37CD0CCC0CCB0CCF0B962A95
:100538004B08D0005008B32A0430C23E8600870119
:10054800403FAF00413FB000423FB100433FB200DF
:100558008231FA22813120002F08CB004B08EB00B2
:10056800DB2A7B1CBD2A22000C142100D001D00AF2
:10057800C12A22000C102100D0014B082000CB001A
:100588004B08EB007B108D3166258131DB2A20007A
:100598006108003A0319D12ADB2A600884000A306E
:1005A80004020318DB2A88310435203E82007B1CB4
:1005B800E02A2000EB01EB0A01302000E0070030C0
:1005C800E13D2100430820006102031DEF2A2100BC
:1005D800420820006002031C0800FF302100C2000E
:1005E800FF30C3002000E001E101080000302000D6
:1005F800CA000030C9000030C8000030C700320807
:10060800CA003108C9003008C8002F08C7000030E8
:10061800BA000030B9000030B8000030B700003030
:10062800C0000030BF000030BE000030BD00C50172
:10063800C601CA1B292B4A08031D312B4908031D73
:10064800312B013048020318312B4A08C0004908F1
:10065800BF004808BE0047084C2B0030A3000030FC
:10066800A2000030A100FF30A0004A08A7004908F6
:10067800A6004808A5004708A40085313225823124
:1006880020002308C0002208BF002108BE0020085F
:10069800BD000030A3000030A2000030A100FF30F0
:1006A800A0004A08A7004908A6004808A50047086E
:1006B800A4008431B024823120002008C70021081A
:1006C800C800890D893B8909C900CA000030C400E7
:1006D8000030C3000030C2000130C1004608803A33
:1006E800B30080303302031D7B2B01304502031C0D
:1006F800A92B2000BB01BC013C08803AB300460886
:10070800803A3302031D8A2B45083B020318A92BA4
:1007180020004108B3004208B4004308B50044086B
:10072800B6000830B335B40DB50DB60D890B962B50
:100738003608C4003508C3003408C2003308C100B5
:100748000130BB070030BC3D802B20004008A300CF
:100758003F08A2003E08A1003D08A0004408A700E9
:100768004308A6004208A5004108A4008E31E226ED
:10077800823120002008B7072108B83D2208B93D7A
:100788002308BA3DCA1BD72B4A08031DD22B490898
:10079800031DD22B01304802031CD72B0130C5079B
:1007A8000030C63D1D2B3A08B2003908B1003808A0
:1007B800B0003708AF0008002000BB003B08B100BC
:1007C800B2013108B9003208BA003B08B100B201E1
:1007D800B301B4013408B8003308B7003208B600D2
:1007E8003108B5008D315625833120002030860030
:1007F80000308700B2308400003085001030B1002E
:1008080016001A00B10B042C7019582C682C3908E2
:10081800B200B101FF3031042100B20000302000E5
:100828003204262C003020003904B100FF303A048D
:10083800B20021003208200031052100B20033083F
:10084800200032052100B300682C20003B08B100CD
:1008580031082100B400682C20003B08B1003108A1
:100868002100B500682C20003B08B10031082100A8
:10087800B60036084B060319462C8C31D624833132
:100888007011682C031022000C1C0314031C4F2C3D
:1008980022000C14512C22000C10F01400302100FE
:1008A800D500F030D600682C20006108003A031902
:1008B8005E2C682C60088400053004020318682C3C
:1008C80088310435403E8200F01C882C003020001E
:1008D8006102053003196002031C882C21005608A8
:1008E8002000A100210055082000A0008E311A2602
:1008F8008331210057082000B1003108EB00013096
:100908002100D5070030D63D01302000E007003037
:10091800E13D2100430820006102031D972C2100BE
:10092800420820006002031CA32CFF302100C200F3
:10093800FF30C3002000E001E1017015F010F03035
:1009480021005602FF3003195502031C080020003D
:10095800E001E101701508002000AA01A31FC12CC5
:10096800A009A109A209A309A00A0319A10A031948
:10097800A20A0319A30AAA01AA0AA71FD22CA4092A
:10098800A509A609A709A40A0319A50A0319A60A0D
:100998000319A70A0130A8002808AA060030AE00EB
:1009A8000030AD000030AC000030AB00230822045A
:1009B8002104200403191B2DA901A90AA31BF02C4B
:1009C8000130A035A10DA20DA30D890BE52C013036
:1009D800A8002808A907E22C0130AB35AC0DAD0DF5
:1009E800AE0D890BF12C23082702031D052D2208C3
:1009F8002602031D052D21082502031D052D2008AB
:100A08002402031C102D2008A4022108A53B22085B
:100A1800A63B2308A73B2B140130A336A20CA10C3C
:100A2800A00C890B112D0130A902031DF02C2A08F6
:100A38000319292DAB09AC09AD09AE09AB0A031995
:100A4800AC0A0319AD0A0319AE0A2E08A3002D0833
:100A5800A2002C08A1002B08A00008002000AA0171
:100A6800A71F432DA409A509A609A709A40A0319C4
:100A7800A50A0319A60A0319A70AAA01AA0AA31F05
:100A8800502DA009A109A209A309A00A0319A10AC6
:100A98000319A20A0319A30A230822042104200423
:100AA8000319892DA901A90AA31B662D0130A035B8
:100AB800A10DA20DA30D890B5B2D0130A8002808FC
:100AC800A907582D23082702031D742D2208260282
:100AD800031D742D21082502031D742D20082402EE
:100AE800031C7E2D2008A4022108A53B2208A63B52
:100AF8002308A73B0130A336A20CA10CA00C890B3C
:100B08007F2D0130A902031D662D2A080319972D90
:100B1800A409A509A609A709A40A0319A50A03197E
:100B2800A60A0319A70A2708A3002608A200250871
:100B3800A1002408A00008003F302000A0002008E1
:100B48002200D8007F302000A00020082200D90011
:100B58009F302000A00020082200DA00AF302000DB
:100B6800A00020082200DB00BF302000A0002008E1
:100B78002200DC00CF302000A00020082200DD0089
:100B8800D7302000A00020082200DE00DF3020003F
:100B9800A00020082200DF00E7302000A000200885
:100BA8002200E000EB302000A00020082200E10035
:100BB800EF302000A00020082200E200F1302000E1
:100BC800A00020082200E300F3302000A000200845
:100BD8002200E400F5302000A00020082200E500F3
:100BE800F7302000A00020082200E600F83020009E
:100BF800A00020082200E700F9302000A00020080B
:100C08002200E800FA302000A00020082200E900B5
:100C180008003F302000A00020082200C6007F30D6
:100C28002000A00020082200C7009F302000A0005C
:100C380020082200C800AF302000A00020082200B1
:100C4800C900BF302000A00020082200CA00CF3011
:100C58002000A00020082200CB00D7302000A000F0
:100C680020082200CC00DF302000A000200822004D
:100C7800CD00E7302000A00020082200CE00EB3095
:100C88002000A00020082200CF00EF302000A000A4
:100C980020082200D000F1302000A0002008220007
:100CA800D100F3302000A00020082200D200F53047
:100CB8002000A00020082200D300F7302000A00068
:100CC80020082200D400F8302000A00020082200CC
:100CD800D500F9302000A00020082200D600FA3004
:100CE8002000A00020082200D70008003F30200084
:100CF800A00020082100A0007F302000A0002008CC
:100D08002100A1009F302000A00020082100A2009F
:100D1800AF302000A00020082100A300BF30200031
:100D2800A00020082100A400CF302000A000200847
:100D38002100A500D7302000A00020082100A6002F
:100D4800DF302000A00020082100A700E7302000A5
:100D5800A00020082100A800EB302000A0002008F7
:100D68002100A900EF302000A00020082100AA00DF
:100D7800F1302000A00020082100AB00F330200053
:100D8800A00020082100AC00F5302000A0002008B9
:100D98002100AD00F7302000A00020082100AE009F
:100DA800F8302000A00020082100AF00F930200012
:100DB800A00020082100B000FA302000A000200880
:100DC8002100B10008002000AA002A087D07A00021
:100DD800A101A10D2008A2002108A3000030A31B37
:100DE800FF30A400A500210051082000A600210022
:100DF80052082000A700210053082000A800210065
:100E080054082000A9000830A635A70DA80DA90D83
:100E1800890B082F2608A2042708A3042808A4047D
:100E28002908A50425082100D40020002408210051
:100E3800D300200023082100D2002000220821002E
:100E4800D100510A031D332F520A031D332F530AB1
:100E5800031D332F540A031D332F031408000310F6
:100E6800080020006B087D07A0002008EB00210087
:100E78005008031D642F20006B0824009900F0150A
:100E8800F019442FF0302000A0002530A1005E08A2
:100E98002007A2005F08213DA3002208860023083E
:100EA800870024001908810001302000DE07003087
:100EB800DF3D5F035E04031D0800DE01DF0108005B
:100EC800F0302000A0002530A1005E082007A20015
:100ED8005F08213DA30022088600230887006B08CD
:100EE80081000130DE070030DF3D5F035E04031D33
:100EF8000800DE01DF010800F0302000AB002430DC
:100F0800AC0062082B07860063082C3D87000108A7
:100F1800AD002D08E9006908AB002B08EB00013093
:100F2800E2070030E33D63036204031D9D2FE201E5
:100F3800E30169088631E7268731031CAE2F2100BB
:100F4800E101E2018C31ED24873170122000E001CB
:100F5800E101B32F01302100E1070030E23D21001B
:100F6800620820006E02031DBD2F210061082000C9
:100F78006D02031808002100E101E2018C31ED2423
:100F880070122000E001E101080086317A268731DD
:100F98008531A025873186310D2687318E31B726D8
:100FA80087318E313D2687318C31F62487318C315B
:100FB800FF2487318D317E2587318E316526873133
:100FC80022000C148D313A2587310318E62F87311A
:100FD80080278731701EF62F20006C088F318127FB
:100FE8008731F92F8F314627873187313527873168
:100FF800E62FFF34FF3401348031D2288031DD28D8
:101008008031F0288031F728813103298131122974
:10101800813115298131182981311B2981311E29F6
:10102800813121298131252981312F2981315A297D
:1010380081317B2981319F298131F8298231072A21
:101048008231192A82311F2A8231272A8231302A95
:1010580082315B2A82317C2A8231A02A8231B52AE8
:101068008F319B2F8F319F2F8F31BF2F8F31BF2F04
:101078008F31BF2F8F31A42F84310B2C8431162C44
:0C1088008431292C8431302C8431372C29
:1019A40001340034683401342100B601B401B501B6
:1019B400080022002108F3002008F2000800730840
:1019C4002100B8007208B70008002000A000200819
:1019D400240091000800FF302000ED00FF30EE00ED
:1019E400EC018C31D6240800210010162700911533
:1019F4009215210010140B1408000B138B138D3156
:101A0400B6258C318D31F8250B178B170800200073
:101A1400A0002003031D112D22000C140800220035
:101A24000C1008006400800101310130FE02003016
:101A3400FF3B7F087E0403190034152D20005F0846
:101A44006506031D272D5E086406031D2B2D031454
:101A540008000310080023008C018D018E01200072
:101A64008C018D018E0121008C018D018E010800F5
:101A740020005D086306031D412D5C086206031DFA
:101A8400452D03140800031008008C31DB248D312C
:101A940072082100E5077308E63D6608F30065084F
:101AA400F2008C31E1240800B23086000030870057
:101AB400203084000030850010302000B000160073
:101AC4001A00B00B612D080000302100C100003065
:101AD400C0000030BF000030BE00B601FF30B200CD
:101AE400FF30B300BD01B401B5016830B700013067
:101AF400B800BB01BC010800701500302100C10012
:101B04000030C0000030BF000030BE00B601FF301E
:101B1400B200FF30B300BD01B401B5016830B700B5
:101B24000130B800BB01BC0108002000A000200364
:101B3400031DA22D01302200A0000030A1000800E6
:101B4400023020002006031DAD2DFF302200A0002E
:101B5400FF30A1000800033020002006031D080008
:101B64002200A001A10108002400171319303D0030
:101B7400A2003C002208E0391638A2002400151700
:101B840095161508F0390438950017169413141394
:101B94001512210091152000911124001108200034
:101BA400A0002008A10008008D3120258D310318E4
:101BB400F52DF030F2002530F300200064087207A0
:101BC40086006508733D87000108240091000130F8
:101BD4002000E4070030E53D65036404031D0800AC
:101BE400E401E501080024009101080024001F130A
:101BF4001B303D0092001A309F003C001F08E03962
:101C04000F389F0024001D139D161D08F03901385C
:101C14009D001F169C131C131D12210092152000F9
:101C24009211240019082000A0002008A100080037
:101C340020002108A2002208A3002008A2002208F4
:101C4400A400310015172000240831009100200061
:101C54002308310092001514151413082000A20063
:101C640022082100D700310014082000A200220815
:101C74002100D80008002000DC01DD01DE01DF01C5
:101C84008E318D268E3132001F08F03907389F00BF
:101C9400C0309E058D312D25FF3024008E00FF308D
:101CA4008D00FF308C0021000D170D160E17270034
:101CB4000D120D138E1221008D1627008D128D1317
:101CC4008C100C1108002200A001A1010030A20018
:101CD4000030A3000030A4000030A5000030A600AE
:101CE4000030A7000030A8000030A9000030AA008E
:101CF4000030AB000030AC000030AD000030AE006E
:101D04000030AF000030B0000030B1000030B2004D
:101D14000030B30008002000A201A3012308803A88
:101D2400A00081302002031D992E003022020318E6
:101D34000800F0302000A0002430A1002208200771
:101D440086002308213D87008101F030A000253062
:101D5400A1002208200786002308213D8700810175
:101D64000130A2070030A33D902E7B14FF302100E8
:101D7400C200FF30C300C501C4010030C9000030F7
:101D8400C8000030C7000030C6008D3156258E31A2
:101D9400200020308600003087003230840000307C
:101DA40085001030B10016001A00B10BD52EB70112
:101DB400B8012100D001CB012000E001E1010800BD
:101DC40000302000AB000030AA000030A900003031
:101DD400A800201CF52E2408A8072508A93D2608DC
:101DE400AA3D2708AB3D0130A435A50DA60DA70DCE
:101DF400890BF62E0130A336A20CA10CA00C890B82
:101E0400FD2E2308220421042004031DEB2E2B089D
:101E1400A3002A08A2002908A1002808A00008009D
:101E24002000A60100305F02023003195E02031C89
:101E34002F2F5E08FF3EA100FF305F3DA200F0306F
:101E4400A3002530A4002108230786002208243D8E
:101E540087000108A50025083C2FF030A10025309B
:101E6400A2005E08210786005F08223D8700010862
:101E7400A3002308A600260A0319422F7B1008009A
:101E840001308C31E724080020006908A000A1017A
:101E94002008A2002108A3006F2F20002208A1001F
:101EA400A001FF302004ED0000302104EE00080002
:101EB400003020002204A000FF302304A1006D089C
:101EC4002005ED006E082105EE00080020006908D9
:101ED400A0002008EC007016080021006208003AF7
:101EE4000319752F802F6108013A03194F2F033A04
:101EF40003195A2F013A0319682F802F0800200074
:101F0400D900DA01DB015B08803AD800803058023E
:101F1400031D8E2F12305A020318080020005A089D
:101F2400463E860001308700010859060319A92F8F
:101F3400B92F69088131DE21080020006908803149
:101F4400A7200800200069088331E023080020004E
:101F54005B08003A0319AF2FB92F5A0884000630E2
:101F640004020318B92F88310435343E820001304D
:101F74002000DA070030DB3D852F08002000A20096
:101F8400A301A4012408803AA10080302102031D8A
:101F9400CD2F123023020318080020002308583ED6
:101FA400860001308700010822060319E22FF92F69
:101FB40001308D319725080002308D3197250800B6
:101FC40020002408003A0319E82FF92F2308003AC7
:101FD4000319FF2F013A0319DA2F033A0319DE2FED
:101FE400013A0319FF2F053A0319FF2FF92F013086
:101FF4002000A3070030A43DC42F0800013400349E
:04200400013400346F
:020000040001F9
:08000E008CFFD2FDFFDFFFFFB4
:10E0000000000000000000000100450043004F0038
:10E0100042004F00540020004C00430043002E00FB
:10E0200000000000000000000200000000000000EE
:10E0300001000000000000000000020000000000DD
:10E0400000000100000000000000000003000300C9
:10E05000010000002800030002000000640003002B
:10E06000030000004800030004000000C800030093
:10E07000050000000000030006000000520003003D
:10E080000700000000000200080000000200090074
:10E09000000002000A00010003000B000000000065
:10E0A00003000C000000000003000D000000B4009D
:10E0B00003000E000000000003000F00000000003D
:10E0C0000300100000000000030011000000000029
:10E0D0000300120000000000030013000000000015
:10E0E0000000000000000000FE0000000000000032
:10E0F0000000000000000000000000000000000020
:10E10000000000000000000000000000000000000F
:10E1100000000000000000000000000000000000FF
:10E1200000000000000000000000000000000000EF
:10E1300000000000000000000000000000000000DF
:10E1400000000000000000000000000000000000CF
:10E1500000000000000000000000000000000000BF
:10E1600000000000000000000000000000000000AF
:10E17000000000000000000000000000000000009F
:10E18000000000000000000000000000000000008F
:10E19000000000000000000000000000000000007F
:10E1A000000000000000000000000000000000006F
:10E1B000000000000000000000000000000000005F
:10E1C000000000000000000000000000000000004F
:10E1D000000000000000000000000000000000003F
:10E1E000000000000000000000000000000000002F
:00000001FF
